:100000000C9462000C948A000C948A000C94D60420
:100010000C94A9040C947C040C948A000C948A001F
:100020000C948A000C948A000C948A000C948A0028
:100030000C948A000C9455040C948A000C948A0049
:100040000C940B040C948A000C94D9030C94B30305
:100050000C948A000C948A000C948A000C948A00F8
:100060000C948A000C948A000000000024002700F1
:100070002A0000000000250028002B0000000008D6
:10008000000201000003040700000000000000005F
:10009000010204081020408001020408102001021F
:1000A00004081020040404040404040402020202EC
:1000B00002020303030303030000000023002600E1
:1000C0002900030511241FBECFEFD8E0DEBFCDBF4E
:1000D00011E0A0E0B1E0E2E1F2E102C005900D9292
:1000E000AE31B107D9F721E0AEE1B1E001C01D9218
:1000F000AE3FB207E1F710E0C2E6D0E004C02197BE
:10010000FE010E94CF07C136D107C9F70E946605DC
:100110000C9407090C94000080E78093380108953F
:1001200080EB80933801089580ED80933801089525
:1001300080EE809338010895CF92DF92EF92FF9284
:100140000F931F93CF93DF936C017A018B01C0E073
:10015000D0E0CE15DF0589F0D8016D918D01D60173
:10016000ED91FC910190F081E02DC6010995892B5C
:1001700011F47E0102C02196ECCFC701DF91CF912F
:100180001F910F91FF90EF90DF90CF900895FC01A9
:10019000918D828D981761F0828DDF01A80FB11DBE
:1001A0005D968C91928D9F5F9F73928F90E00895E2
:1001B0008FEF9FEF0895FC01918D828D981731F09C
:1001C000828DE80FF11D858D90E008958FEF9FEFF0
:1001D0000895FC01918D228D892F90E0805C9F4FC6
:1001E000821B91098F73992708958FE391E00E94F4
:1001F000E90021E0892B09F420E0822F0895FC0119
:10020000848DDF01A80FB11DA35ABF4F2C91848D9F
:1002100090E001968F739927848FA689B7892C93D4
:10022000A089B1898C9180648C93938D848D98136F
:1002300006C00288F389E02D80818F7D8083089538
:10024000EF92FF920F931F93CF93DF93EC0181E026
:10025000888F9B8D8C8D981305C0E889F9898081E2
:1002600085FD24C0F62E0B8D10E00F5F1F4F0F731E
:100270001127E02E8C8DE8120CC00FB607FCFACFC8
:10028000E889F989808185FFF5CFCE010E94FF00C2
:10029000F1CF8B8DFE01E80FF11DE35AFF4FF08285
:1002A0000B8FEA89FB898081806207C0EE89FF8914
:1002B0006083E889F98980818064808381E090E0AF
:1002C000DF91CF911F910F91FF90EF900895CF9301
:1002D00065E58FE391E00E942001C0913E016C2F03
:1002E0008FE391E00E9420016C2F60958FE391E0F5
:1002F0000E942001609137018FE391E00E9420016C
:10030000609100018FE391E0CF910C942001CF9395
:10031000DF93EC01888D8823C9F0EA89FB8980810D
:1003200085FD05C0A889B9898C9186FD0FC00FB6DF
:1003300007FCF5CF808185FFF2CFA889B9898C9120
:1003400085FFEDCFCE010E94FF00E7CFDF91CF9177
:10035000089580E090E0892B29F00E94F50081113A
:100360000C940000089590E0FC01E458FF4F349194
:10037000FC01E057FF4F2491FC01EC55FF4FE49145
:10038000EE2309F43BC0332339F1333091F038F4D4
:100390003130A9F0323001F584B58F7D12C037308D
:1003A00091F03830A1F03430B9F4809180008F7D25
:1003B00003C0809180008F77809380000DC084B54A
:1003C0008F7784BD09C08091B0008F7703C0809182
:1003D000B0008F7D8093B000F0E0EE0FFF1FEE586D
:1003E000FF4FA591B4918FB7F894EC91611103C0C0
:1003F00020952E2301C02E2B2C938FBF0895CF93D1
:10040000DF9390E0FC01E057FF4F2491FC01EC5595
:10041000FF4F8491882361F190E0880F991FFC01C0
:10042000E859FF4FC591D491FC01EE58FF4FA591BB
:10043000B491611109C09FB7F894888120958223F7
:100440008883EC912E230BC0623061F49FB7F8943F
:100450003881822F809583238883EC912E2B2C93D7
:100460009FBF06C08FB7F894E8812E2B28838FBFDB
:10047000DF91CF9108953FB7F89480912601909134
:100480002701A0912801B091290126B5A89B05C09C
:100490002F3F19F00196A11DB11D3FBFBA2FA92F03
:1004A000982F8827820F911DA11DB11DBC01CD0180
:1004B00042E0660F771F881F991F4A95D1F708956C
:1004C0008F929F92AF92BF92CF92DF92EF92FF9264
:1004D0006B017C010E943B024B015C01C114D10401
:1004E000E104F104F1F00E943B02DC01CB01881928
:1004F0009909AA09BB09883E9340A105B10570F38B
:1005000021E0C21AD108E108F10888EE880E83E0E4
:10051000981EA11CB11CC114D104E104F10419F707
:10052000DDCFFF90EF90DF90CF90BF90AF909F9086
:100530008F9008952FB7F894609122017091230154
:1005400080912401909125012FBF0895FF920F9370
:100550001F93CF93DF93EC0180912001FF802D81C9
:10056000909120014E813091200130953423292330
:10057000932F922B8F25F92EF822809120018F83C3
:100580000885198501151105E1F0D80113968C91A4
:100590009F2D982381F090912001892391E009F407
:1005A00090E090931F01F801848180931E010190D7
:1005B000F081E02D0995D80115960D911C911697A3
:1005C000E1CF9BB38C81982349F09BB3892B8BBBE4
:1005D000E881F981808180932001BECFDF91CF91A6
:1005E0001F910F91FF900895CF93DF93DC01FB01E2
:1005F0002283518340831296CD91DC911397988189
:100600008381892B888382818D7F813041F4159687
:100610009C9115978381892B15968C9315978281D0
:100620008150823040F416969C9116978381892BD5
:1006300016968C9316979091680014968C91892B3E
:1006400080936800DF91CF910895AF92BF92DF92BF
:10065000EF92FF920F931F93CF93DF9300D0CDB70C
:10066000DEB7A82EB12CF501EC55FF4F24912111D6
:1006700002C08FEF6AC061157105D9F330E02250D6
:1006800031092330310540F4220F331FD901A95F0E
:10069000BE4F0D911C9102C000E010E0AB01D82EBE
:1006A000D801ED91FC911197808117968C93179743
:1006B0001896ED90FC901997E114F10489F0F70178
:1006C00084818D1107C021E0B701C8010E94F402A6
:1006D00080E03BC085819681009711F07C01EFCFCF
:1006E00087E090E049835A830E94D507DC01119688
:1006F0001C921E9212961C92129749815A81892B44
:1007000009F4B7CF1496DC92149781E012968C937B
:10071000129716961C921E921597F501E057FF4FFF
:10072000E4911396EC931397F80180859185892BBA
:1007300019F4B187A08703C0F701B683A58321E030
:10074000BD01C8010E94F40281E00F900F90DF917B
:10075000CF911F910F91FF90EF90DF90BF90AF90DE
:1007600008950E9402091F920F920FB60F92112452
:100770002F933F934F935F936F937F938F939F93A9
:10078000AF93BF93EF93FF938FE391E00E94FF003D
:10079000FF91EF91BF91AF919F918F917F916F9159
:1007A0005F914F913F912F910F900FBE0F901F902F
:1007B00018951F920F920FB60F9211242F938F93BB
:1007C0009F93EF93FF93E0914F01F091500180814F
:1007D000E0915501F091560182FD12C09081809107
:1007E00058018F5F8F7320915901821751F0E0916A
:1007F0005801F0E0E15CFE4F958F8093580101C0F5
:100800008081FF91EF919F918F912F910F900FBE5B
:100810000F901F9018951F920F920FB60F921124F0
:100820002F933F938F939F93AF93BF938091220118
:1008300090912301A0912401B091250130912101D3
:1008400023E0230F2D3720F40196A11DB11D05C013
:1008500026E8230F0296A11DB11D2093210180934C
:10086000220190932301A0932401B093250180914C
:10087000260190912701A0912801B09129010196AC
:10088000A11DB11D8093260190932701A0932801FB
:10089000B0932901BF91AF919F918F913F912F917B
:1008A0000F900FBE0F901F9018951F920F920FB6CA
:1008B0000F9211242F933F934F935F936F937F93E6
:1008C0008F939F93AF93BF93EF93FF93E0912A0190
:1008D000F0912B010995FF91EF91BF91AF919F91FD
:1008E0008F917F916F915F914F913F912F910F90D9
:1008F0000FBE0F901F9018951F920F920FB60F9278
:1009000011242F933F934F935F936F937F938F9314
:100910009F93AF93BF93EF93FF93E091DC01F0912E
:10092000DD018081809320018CED91E00E94A60280
:10093000FF91EF91BF91AF919F918F917F916F91B7
:100940005F914F913F912F910F900FBE0F901F908D
:1009500018951F920F920FB60F9211242F933F9369
:100960004F935F936F937F938F939F93AF93BF93B7
:10097000EF93FF93E091E601F091E701808180938E
:10098000200186EE91E00E94A602FF91EF91BF91B7
:10099000AF919F918F917F916F915F914F913F9117
:1009A0002F910F900FBE0F901F9018951F920F92CE
:1009B0000FB60F9211242F933F934F935F936F9332
:1009C0007F938F939F93AF93BF93EF93FF93E091A8
:1009D000F001F091F10180818093200180EF91E09E
:1009E0000E94A602FF91EF91BF91AF919F918F91CD
:1009F0007F916F915F914F913F912F910F900FBE1B
:100A00000F901F901895EFE3F1E01382128288EEA9
:100A100093E0A0E0B0E084839583A683B78381E16F
:100A200091E09183808385EC90E09587848784ECC6
:100A300090E09787868780EC90E0918B808B81ECAB
:100A400090E0938B828B82EC90E0958B848B86EC8C
:100A500090E0978B868B118E128E138E148EECEB9A
:100A6000F0E085919491E0EFF1E0918380838BE653
:100A700090E09383828381E08483158216821186BD
:100A80001086EEEBF0E085919491E6EEF1E0918333
:100A900080838CE690E09383828382E08483158256
:100AA000168211861086E0ECF0E085919491ECEDD1
:100AB000F1E0918380838DE690E09383828384E0EC
:100AC000848315821682118610860895CF93DF9352
:100AD00000D000D0CDB7DEB7789484B5826084BDF5
:100AE00084B5816084BD85B5826085BD85B5816032
:100AF00085BD80916E00816080936E0010928100B0
:100B0000809181008260809381008091810081606A
:100B1000809381008091800081608093800080912B
:100B2000B10084608093B1008091B00081608093B7
:100B3000B00080917A00846080937A0080917A007E
:100B4000826080937A0080917A00816080937A003D
:100B500080917A00806880937A001092C10061E0F1
:100B600083E00E94FF0161E082E00E94FF0162E0F9
:100B700084E00E94FF0162E085E00E94FF0162E0E4
:100B800086E00E94FF0162E087E00E94FF016CE8BE
:100B900070E084E00E94250360E970E085E00E9437
:100BA000250364E970E086E00E94250368E970E0AF
:100BB00087E00E94250362E08EE00E94FF0162E070
:100BC0008FE00E94FF0162E080E10E94FF0162E08D
:100BD00081E10E94FF0162E082E10E94FF0162E088
:100BE00083E10E94FF0162E084E10E94FF0162E074
:100BF00085E10E94FF01E0914F01F091500182E0F8
:100C00008083E0914B01F0914C011082E0914D0105
:100C1000F0914E0183E3808310925701E0915301DC
:100C2000F091540186E08083E0915101F0915201EE
:100C3000808180618083E0915101F0915201808137
:100C400088608083E0915101F09152018081806839
:100C50008083E0915101F091520180818F7D8083EA
:100C600086B180958F7380933E0110923D01109262
:100C7000390110923A0110923B0110923C0162E35B
:100C800070E080E090E00E94600280E1809381004B
:100C90001092800083E080932E0182E19AE7909386
:100CA0002D0180932C01909387008093860083E12F
:100CB0008093810087E691E090932B0180932A0135
:100CC00081E080936F0062E370E080E090E00E943A
:100CD00060025E0126E0A20EB11C5CEB452E52E0E4
:100CE000552E612C712C65E0962E74E0872E86B10E
:100CF00080958F7380933E018FE391E00E94E9001D
:100D0000181619060CF05BC08E010F5F1F4F0E9472
:100D10009A02609347017093480180934901909330
:100D20004A01E0913F01F09140010680F781E02DFA
:100D30008FE391E0099597FD0AC0F80181938F0137
:100D4000EA15FB0521F789818535C9F51EC00E948A
:100D50009A02C0904701D0904801E0904901F0907C
:100D60004A01DC01CB018C199D09AE09BF09C09075
:100D70004301D0904401E0904501F09046018C156C
:100D80009D05AE05BF0568F2DECF2A8180913E0148
:100D9000281315C08B8190E0820F911D8F3F910524
:100DA00071F48C81809300018D8180933D011092BC
:100DB000390110923A0110923B0110923C0180914E
:100DC00038018823D1F0809100018823B1F080910F
:100DD0003801807F803709F049C081E08093370176
:100DE00042E3C42ED12CE12CF12C809137018111EA
:100DF0006EC0109238011092370180913D0182300F
:100E000041F50E949A0260932F0170933001809304
:100E100031019093320180912F0190913001A09186
:100E20003101B09132014091330150913401609110
:100E3000350170913601841B950BA60BB70B8938D1
:100E40009341A105B10528F0809100018A3008F492
:100E500096C080910001811102C061E001C060E094
:100E600082E00E94B3010E94A90141CF8091380124
:100E7000807F803B49F482E08093370134E6C32EC3
:100E8000D12CE12CF12CB1CF80913801807F803DB5
:100E900049F483E08093370126E9C22ED12CE12C5E
:100EA000F12CA3CF80913801807F803E41F4809265
:100EB000370198ECC92ED12CE12CF12C96CF9092D1
:100EC00037018AEFC82ED12CE12CF12C8ECF109156
:100ED00000010E949A026093330170933401809361
:100EE00035019093360180913D01813081F4E0918C
:100EF0003701F0E0E85CFE4F80818F5F8083E091F6
:100F00003701F0E0E85CFE4F8081803128F4809169
:100F1000000181508093000180910001811708F049
:100F200068CF61E083E00E94B301C701B6010E946F
:100F3000600260E083E00E94B30103E010E061E042
:100F400082E00E94B30162E370E080E090E00E94E2
:100F5000600260E082E00E94B30162E370E080E042
:100F600090E00E9460020150110949F7C301B201EB
:100F70006C197D098E099F090E9460023ACF809109
:100F800000018F5F809300010E949A0260933301F9
:100F90007093340180933501909336015ACFEE0F50
:100FA000FF1F0590F491E02D0994CF93DF938230D9
:100FB000910510F482E090E0E091FC01F091FD01D8
:100FC00020E030E0C0E0D0E0309711F14081518165
:100FD00048175907C0F04817590761F48281938177
:100FE000209719F09B838A832BC09093FD018093F7
:100FF000FC0126C02115310519F04217530718F4DA
:101000009A01BE01DF01EF010280F381E02DDCCF08
:101010002115310509F1281B390B2430310590F4D5
:1010200012968D919C9113976115710521F0FB012A
:101030009383828304C09093FD018093FC01FD01A2
:10104000329644C0FD01E20FF31F81939193225029
:1010500031092D933C933AC02091FA013091FB0164
:10106000232B41F420910301309104013093FB01C3
:101070002093FA01209101013091020121153105DF
:1010800041F42DB73EB74091050150910601241B54
:10109000350BE091FA01F091FB01E217F307A0F4A0
:1010A0002E1B3F0B2817390778F0AC014E5F5F4FBE
:1010B0002417350748F04E0F5F1F5093FB014093F4
:1010C000FA018193919302C0E0E0F0E0CF01DF915B
:1010D000CF9108950F931F93CF93DF93009709F457
:1010E0008CC0FC013297138212820091FC01109196
:1010F000FD010115110581F420813181820F931FBB
:101100002091FA013091FB012817390779F5F09306
:10111000FB01E093FA0171C0D80140E050E0AE1746
:10112000BF0750F412962D913C911397AD012115F4
:10113000310509F1D901F3CF9D01DA01338322830F
:1011400060817181860F971F8217930769F4EC0104
:1011500028813981260F371F2E5F3F4F318320832F
:101160008A819B8193838283452B29F4F093FD012F
:10117000E093FC0142C01396FC93EE931297ED01AD
:10118000499159919E01240F351FE217F30771F41D
:1011900080819181840F951F029611969C938E9366
:1011A0008281938113969C938E931297E0E0F0E0F6
:1011B000D80112968D919C911397009719F0F80120
:1011C0008C01F6CF8D919C9198012E5F3F4F820F3D
:1011D000931F2091FA013091FB012817390769F418
:1011E000309729F41092FD011092FC0102C0138285
:1011F00012821093FB010093FA01DF91CF911F91AE
:101200000F91089581E090E0F8940C940709F89408
:02121000FFCF0E
:10121200140000FE018000F001E601DC0100000084
:0E1222000020019C00E900C700DB00870100EE
:107800000C94343C0C94513C0C94513C0C94513CE1
:107810000C94513C0C94513C0C94513C0C94513CB4
:107820000C94513C0C94513C0C94513C0C94513CA4
:107830000C94513C0C94513C0C94513C0C94513C94
:107840000C94513C0C94513C0C94513C0C94513C84
:107850000C94513C0C94513C0C94513C0C94513C74
:107860000C94513C0C94513C11241FBECFEFD8E036
:10787000DEBFCDBF11E0A0E0B1E0ECE9FFE702C060
:1078800005900D92A230B107D9F712E0A2E0B1E065
:1078900001C01D92AD30B107E1F70E942D3D0C945F
:1078A000CC3F0C94003C982F959595959595959582
:1078B000905D8F708A307CF0282F295A8091C0000B
:1078C00085FFFCCF9093C6008091C00085FFFCCF60
:1078D0002093C6000895282F205DF0CF982F809127
:1078E000C00085FFFCCF9093C6000895EF92FF92F1
:1078F0000F931F93EE24FF2487018091C00087FD22
:1079000017C00894E11CF11C011D111D81E4E8164B
:1079100082E4F8068FE0080780E0180770F3E09132
:107920000401F091050109958091C00087FFE9CF1E
:107930008091C6001F910F91FF90EF9008950E94D3
:10794000763C982F8091C00085FFFCCF9093C600B5
:1079500091362CF490330CF09053892F089597555D
:10796000892F08951F930E949F3C182F0E949F3CCF
:107970001295107F810F1F9108951F93182F882350
:1079800021F00E94763C1150E1F71F9108951F935A
:10799000182F0E94763C803249F0809103018F5F5E
:1079A000809303018530C1F01F9108958091C0003C
:1079B00085FFFCCF84E18093C6008091C00085FFE5
:1079C000FCCF1093C6008091C00085FFFCCF80E102
:1079D0008093C6001F910895E0910401F091050184
:1079E00009951F9108950E94763C803241F0809164
:1079F00003018F5F80930301853081F008958091AA
:107A0000C00085FFFCCF84E18093C6008091C00058
:107A100085FFFCCF80E18093C6000895E0910401CA
:107A2000F09105010995089540E951E08823A1F0FE
:107A30002D9A28EE33E0FA013197F1F721503040CA
:107A4000D1F72D9828EE33E0FA013197F1F7215064
:107A50003040D1F7815061F708953F924F925F9285
:107A60006F927F928F929F92AF92BF92CF92DF924E
:107A7000EF92FF920F931F93CF93DF93000080E16B
:107A80008093C4001092C50088E18093C10086E015
:107A90008093C2005098589A259A81E00E94143D24
:107AA00024E1F22E9EE1E92E85E9D82E0FE0C02ECA
:107AB00010E1B12EAA24A394B1E49B2EA6E58A2E50
:107AC000F2E57F2EE0E26E2E79E4572E63E5462E36
:107AD00050E5352E0E94763C8033B1F18133B9F107
:107AE000803409F46FC0813409F476C0823409F41B
:107AF00085C0853409F488C0803531F1823521F1A3
:107B0000813511F1853509F485C0863509F48DC0BC
:107B1000843609F496C0843709F403C1853709F423
:107B200072C1863709F466C0809103018F5F80932C
:107B30000301853079F6E0910401F0910501099582
:107B40000E94763C803351F60E94F33CC3CF0E94E2
:107B5000763C803249F78091C00085FFFCCFF092DF
:107B6000C6008091C00085FFFCCF9092C600809136
:107B7000C00085FFFCCF8092C6008091C00085FFC9
:107B8000FCCF7092C6008091C00085FFFCCF609250
:107B9000C6008091C00085FFFCCF5092C600809146
:107BA000C00085FFFCCF4092C6008091C00085FFD9
:107BB000FCCF3092C6008091C00085FFFCCFB09210
:107BC000C60088CF0E94763C863808F4BDCF0E945C
:107BD000763C0E94F33C7ECF0E94763C803809F4CC
:107BE0009CC0813809F40BC1823809F43CC1883942
:107BF00009F48FC080E00E94C73C6CCF84E10E94F2
:107C0000BD3C0E94F33C66CF85E00E94BD3C0E94D3
:107C1000F33C60CF0E94763C809306010E94763C44
:107C2000809307010E94F33C55CF0E94763C80333D
:107C300009F41DC183E00E94BD3C80E00E94C73C66
:107C400049CF0E94763C809309020E94763C809343
:107C5000080280910C028E7F80930C020E94763C79
:107C6000853409F415C18091080290910902892B8D
:107C700089F000E010E00E94763CF801E85FFE4FDA
:107C800080830F5F1F4F80910802909109020817AF
:107C9000190788F30E94763C803209F045CF809125
:107CA0000C0280FF01C16091060170910701660F0F
:107CB000771F7093070160930601A0910802B091AD
:107CC00009021097C9F0E8E0F1E09B01AD014E0F09
:107CD0005F1FF999FECF32BD21BD819180BDFA9A17
:107CE000F99A2F5F3F4FE417F50799F76A0F7B1F4B
:107CF00070930701609306018091C00085FFFCCF5F
:107D0000F092C6008091C00085FFFCCFB092C60003
:107D1000E1CE83E00E94C73CDDCE82E00E94C73CFA
:107D2000D9CE0E94763C809309020E94763C8093D3
:107D300008028091060190910701880F991F909386
:107D40000701809306010E94763C853409F4A6C0A1
:107D500080910C028E7F80930C020E94763C8032D0
:107D600009F0B8CE8091C00085FFFCCFF092C6002C
:107D7000609108027091090261157105B9F140E046
:107D800050E080910C02A82FA170B82FB27011C0E2
:107D9000BB2309F45CC0E0910601F0910701319624
:107DA000F0930701E09306014F5F5F4F46175707B7
:107DB000E8F4AA2369F3F999FECF209106013091E6
:107DC000070132BD21BDF89A90B58091C00085FFB2
:107DD000FCCF9093C6002F5F3F4F30930701209355
:107DE00006014F5F5F4F4617570718F38091C00099
:107DF00085FDE5CE8091C00085FFF8CFE0CE81E023
:107E00000E94C73C67CE0E94763C803209F08CCE3F
:107E10008091C00085FFFCCFF092C6008091C00029
:107E200085FFFCCFE092C6008091C00085FFFCCFAB
:107E3000D092C6008091C00085FFFCCFC092C600E2
:107E40008091C00085FFFCCFB092C60043CEE09188
:107E50000601F091070194918091C00085FFFCCF4D
:107E60009093C6009CCF80E10E94C73C33CE0E9415
:107E7000763C0E94763C182F0E94763C112309F430
:107E800083C0113009F484C08FE00E94C73C22CE29
:107E900080910C02816080930C02E5CE80910C02EF
:107EA000816080930C0259CF809107018823880F4D
:107EB000880B8A2180930B02809106019091070123
:107EC000880F991F90930701809306018091080203
:107ED00080FF09C080910802909109020196909359
:107EE000090280930802F894F999FECF1127E091D6
:107EF0000601F0910701C8E0D1E08091080290915D
:107F00000902103091F40091570001700130D9F34B
:107F100003E000935700E89500915700017001308D
:107F2000D9F301E100935700E89509901990009169
:107F3000570001700130D9F301E000935700E89534
:107F40001395103498F011270091570001700130FB
:107F5000D9F305E000935700E895009157000170B0
:107F60000130D9F301E100935700E895329602976A
:107F700009F0C7CF103011F00296E5CF112480919F
:107F8000C00085FFB9CEBCCE8EE10E94C73CA2CD19
:0C7F900085E90E94C73C9ECDF894FFCF0D
:027F9C00800063
:040000030000780081
:00000001FF
